:100000000C945E000C9486000C9486000C94860080
:100010000C9486000C9486000C9486000C94860048
:100020000C9486000C9486000C9486000C94B60602
:100030000C9486000C9486000C9486000C94860028
:100040000C9414060C9486000C9484060C945E06A2
:100050000C9486000C9486000C9486000C94860008
:100060000C9486000C948600000000080002010039
:100070000003040700000000000000000000000072
:10008000250028002B0000000000240027002A0083
:10009000040404040404040402020202020203032E
:1000A0000303030301020408102040800102040836
:1000B00010200102040810207207650A11241FBED7
:1000C000CFEFD8E0DEBFCDBF11E0A0E0B1E0E6E8C1
:1000D000FAE102C005900D92AC3AB107D9F722E0DF
:1000E000ACEAB1E001C01D92AE39B207E1F710E011
:1000F000CDE5D0E004C02197FE010E941B0BCC355A
:10010000D107C9F70E9401080C94360D0C94000029
:1001100090E0FC01EC55FF4F249180579F4FFC016C
:100120008491882399F090E0880F991FFC01EA5789
:10013000FF4FA591B491FC01E458FF4F8591949134
:100140008FB7F894EC91E22BEC938FBF08958F92C8
:100150009F92AF92BF92FF920F931F93CF93DF9323
:10016000F0907F022BE02F1508F44CC02091810203
:1001700008E512E0021B110927FD1395000F111F5E
:10018000000F111F20918002C8E8D0E0C21BD109E6
:1001900027FDD395CC0FDD1FCC0FDD1F4E010D2E9B
:1001A000000CAA08BB089801012E000C440B550B4B
:1001B000281939094A095B09DC010E949F0A24EBCE
:1001C00030E040E050E00E94750A820E931EA41EAB
:1001D000B51E8C169D062CF0E801801691060CF4D5
:1001E000E4012297CC0FDD1F2FB7F8948F2D90E0FC
:1001F000FC01EE0FFF1FE80FF91FEC5AFD4FD283F1
:10020000C1832FBFDF91CF911F910F91FF90BF90BE
:10021000AF909F908F90089590E0FC01E859FF4FB8
:100220002491FC01EC55FF4F3491FC01E057FF4F46
:10023000E491EE23C9F0222339F0233001F1A8F430
:10024000213019F1223029F1F0E0EE0FFF1FE458C0
:10025000FF4FA591B4918FB7F894EC91611126C02E
:1002600030953E233C938FBF08952730A9F0283066
:10027000C9F0243049F7809180008F7D03C08091C0
:1002800080008F7780938000DFCF84B58F7784BD27
:10029000DBCF84B58F7DFBCF8091B0008F778093CB
:1002A000B000D2CF8091B0008F7DF9CF3E2BDACF56
:1002B000AF92BF92CF92DF92EF92FF920F931F9374
:1002C000CF93DF936C017B018B01040F151FEB01B2
:1002D0005E01AE18BF08C017D10759F06991D60169
:1002E000ED91FC910190F081E02DC6010995892BDB
:1002F00079F7C501DF91CF911F910F91FF90EF909A
:10030000DF90CF90BF90AF900895FC01538D448D46
:10031000252F30E0842F90E0821B930B541710F0B0
:10032000CF96089501970895FC01918D828D9817BD
:1003300061F0A28DAE0FBF2FB11D5D968C91928D95
:100340009F5F9F73928F90E008958FEF9FEF0895C6
:10035000FC01918D828D981731F0828DE80FF11D8F
:10036000858D90E008958FEF9FEF0895FC01918DAA
:10037000228D892F90E0805C9F4F821B91098F73A3
:100380009927089587EB91E00E94B60121E0892B1F
:1003900009F420E0822F0895FC01A48DA80FB92F45
:1003A000B11DA35ABF4F2C91848D90E001968F739D
:1003B0009927848FA689B7892C93A089B1898C91BC
:1003C000837080648C93938D848D981306C002880B
:1003D000F389E02D80818F7D80830895EF92FF92D5
:1003E0000F931F93CF93DF93EC0181E0888F9B8D58
:1003F0008C8D98131AC0E889F989808185FF15C012
:100400009FB7F894EE89FF896083E889F989808134
:100410008370806480839FBF81E090E0DF91CF9103
:100420001F910F91FF90EF900895F62E0B8D10E025
:100430000F5F1F4F0F731127E02E8C8D8E110CC094
:100440000FB607FCFACFE889F989808185FFF5CFDF
:10045000CE010E94CC01F1CFEB8DEC0FFD2FF11DF1
:10046000E35AFF4FF0829FB7F8940B8FEA89FB891C
:1004700080818062CFCFCF93DF93EC01888D88237A
:10048000B9F0AA89BB89E889F9898C9185FD03C0F7
:10049000808186FD0DC00FB607FCF7CF8C9185FFDC
:1004A000F2CF808185FFEDCFCE010E94CC01E9CF54
:1004B000DF91CF910895089590E080E00895CF9363
:1004C000DF93D62FC42F682F8FE00E940C016D2F71
:1004D00080E10E940C016C2F81E1DF91CF910C949F
:1004E0000C01CF93DF93EC0160E08E810E940C0140
:1004F00061E08E810E940C0160E08E810E940C01FF
:100500008BE891E00197F1F7DF91CF910895CF92B9
:10051000DF92EF92FF920F931F93CF93DF936C01C3
:100520007C0187E0E80EF11CD0E0C0E0062F10E06F
:10053000B8010C2E02C0759567950A94E2F76170B8
:10054000F70181917F010E940C012196C430D105F1
:1005500079F7C601DF91CF911F910F91FF90EF9036
:10056000DF90CF900C947102CF92DF92EF92FF92C6
:100570000F931F93CF93DF93EC01F62E642F8C81A2
:100580000E940C018D818F3F19F060E00E940C01E8
:100590000F2D10E08F8584FF25C06E0187E0C80E07
:1005A000D11CF12CE12CB8010E2C02C07595679579
:1005B0000A94E2F76170F60181916F010E940C01CB
:1005C000FFEFEF1AFF0A88E0E816F10461F7CE01A9
:1005D000DF91CF911F910F91FF90EF90DF90CF901F
:1005E0000C947102B80184E0759567958A95E1F7DE
:1005F000CE010E9487026F2DCE01DF91CF911F9116
:100600000F91FF90EF90DF90CF900C94870240E025
:10061000682F82E892E00C94B40281E00E94070304
:100620008BE39FE10197F1F70895CF93DF93823039
:1006300029F4909191029860909391028093950291
:100640001092960280E48093970280E18093980252
:1006500080E580939902809186020E9488008091B3
:1006600087028F3F11F00E948800809188020E94CB
:100670008800C2E8D2E09E01225832408091910267
:1006800084FD0AC084E090E02196281739073CF4E5
:100690008E810E948800EFCF88E090E0F5CF8BE359
:1006A0009DE00197F1F760E0809186020E940C01C5
:1006B00060E0809188020E940C01809187028F3F48
:1006C00019F060E00E940C018091910284FD34C019
:1006D00063E082E892E00E948702CBE4D6E4CE0198
:1006E0000197F1F763E082E892E00E948702219788
:1006F000F1F763E082E892E00E94870283E592E0EE
:100700000197F1F762E082E892E00E94870280910F
:10071000910280620E94070384E0809392028CE041
:100720000E9407030E940D0382E08093930286E0FB
:10073000DF91CF910C94070380620E9407038BE442
:1007400096E40197F1F78091910280620E9407037D
:1007500083E592E00197F1F78091910280620E9417
:100760000703D5CFE0919502E23040F4E150F0E08C
:10077000EE57FD4F848980680C940703E1E0F7CFC2
:1007800041E00E94B40281E090E00895FC010190F4
:100790000020E9F73197AF01481B590BBC0182E8F3
:1007A00092E00C945801AF92BF92CF92DF92EF92F9
:1007B000FF920F931F93CF93DF93DC01CD90DC90DA
:1007C0001197C114D10439F01496CD91DC918C01AC
:1007D0007601209761F4DF91CF911F910F91FF90E7
:1007E000EF90DF90CF90BF90AF90089575015701C3
:1007F000BFEFAB1ABB0AF7018081082E000C990BE2
:100800000E94690A892B91F72197CC0DDD1D888103
:10081000082E000C990B0E94690A892B29F0CE152D
:10082000DF0510F02197F3CFAE014F5F5F4F4E19F8
:100830005F09D80115965C934E931497CE14DF048C
:1008400020F4B701C6010E94030DD801ED91FC917F
:10085000119714968D919C91E80FF91F1082BBCFD0
:10086000CF93DF93FC01248135814217530788F42D
:10087000C081D181FB0160817181CE01840F951F00
:100880000E941C0D009729F08C1B9D0BDF91CF91CE
:1008900008958FEF9FEFFACF0F931F93CF93DF93BE
:1008A000EC0188819981009759F02A813B812617B4
:1008B000370730F081E0DF91CF911F910F910895BC
:1008C0008B016F5F7F4F0E94460C009759F0998310
:1008D00088831B830A832C813D81232B59F7FC01DC
:1008E0001082E8CF80E0E7CFEF92FF920F931F9343
:1008F000CF93DF936115710541F480E0DF91CF91D3
:100900001F910F91FF90EF90089541155105B1F09F
:100910007B01EC010C811D81040F151FB8010E94A1
:100920004C04882351F3288139818C819D81B70142
:10093000820F931F0E94150D1D830C8381E0DECF73
:100940001F93CF93DF9300D0CDB7DEB711E087EBD5
:1009500091E00E94B601892BA9F087EB91E00E94FB
:1009600094018A3019F41093AD01F1CF89831A8272
:1009700041E050E0BE016F5F7F4F89E792E00E9447
:100980007404E5CF0F900F90DF91CF911F910895E0
:100990000E94C20181110C94A0040895CF93DF93AB
:1009A000EC0188819981009711F00E94BD0B19829A
:1009B00018821D821C821B821A82DF91CF910895BA
:1009C000EF92FF920F931F93CF93DF93EC017B0184
:1009D0008A01BA010E944C0481110BC0CE010E9411
:1009E000CE04CE01DF91CF911F910F91FF90EF9038
:1009F00008951D830C83B701888199810E94150D8C
:100A0000F0CFFB01DC0111961C921E9213961C92F2
:100A10001E92129715961C921E921497861797078E
:100A200049F0608171816115710521F04481558122
:100A30000C94E0040895FC0111821082138212824A
:100A400015821482FB0101900020E9F73197AF0174
:100A5000461B570B0C94E004FC01808191810097A8
:100A600011F00C94BD0B08958F929F92AF92BF929C
:100A7000CF92DF92EF92FF920F931F93CF93DF936A
:100A800000D000D000D0CDB7DEB74C015B018A01A9
:100A900065E671E0CE0101960E941B05F8014481D4
:100AA000558160817181CE0101960E94740481118B
:100AB00004C0CE0101960E94CE0441E050E065E6FC
:100AC00071E0CE0101960E947404811104C0CE0130
:100AD00001960E94CE0450E040E0BE016F5F7F4F60
:100AE000C5010E9430048C01CE0101960E942C05A4
:100AF0000F3F1007C9F46EE871E0C4010E941B05A6
:100B0000C40126960FB6F894DEBF0FBECDBFDF91AD
:100B1000CF911F910F91FF90EF90DF90CF90BF90FA
:100B2000AF909F908F90089564E271E0CE0101969E
:100B30000E941B05A801BE016F5F7F4FC5010E9487
:100B400030048C01CE0101960E942C050F3F100746
:100B500091F265E671E0CE0101960E941B05A801A5
:100B6000BE016F5F7F4FC5010E9430048C01CE0132
:100B700001960E942C050F3F100709F4BCCF0F5FB0
:100B80001F4F65E671E0CE0101960E941B05A8018A
:100B9000BE016F5F7F4FC5010E9430047C01CE0112
:100BA00001960E942C05FFEFEF16FF0609F4A3CF74
:100BB000E016F10628F4902F812F8701E92EF82EF8
:100BC0006EE871E0C4010E941B05F501C480D58068
:100BD0000C151D0508F094CFEC14FD0408F4670112
:100BE000F50160817181FB01EC0DFD1DF08010822B
:100BF000600F711F6115710599F0FB0101900020D4
:100C0000E9F73197AF01461B570BC4010E94E0047E
:100C1000F50180819181C80ED91EF601F08270CF56
:100C2000C4010E94CE04F4CF1F920F920FB60F9210
:100C300011242F933F938F939F93AF93BF938091F2
:100C4000B3019091B401A091B501B091B60130917A
:100C5000B20123E0230F2D3758F50196A11DB11DD8
:100C60002093B2018093B3019093B401A093B50196
:100C7000B093B6018091AE019091AF01A091B00107
:100C8000B091B1010196A11DB11D8093AE01909369
:100C9000AF01A093B001B093B101BF91AF919F910B
:100CA0008F913F912F910F900FBE0F901F9018952D
:100CB00026E8230F0296A11DB11DD2CF1F920F92DD
:100CC0000FB60F9211242F933F934F935F936F931F
:100CD0007F938F939F93AF93BF93EF93FF9387EB94
:100CE00091E00E94CC01FF91EF91BF91AF919F9154
:100CF0008F917F916F915F914F913F912F910F90C5
:100D00000FBE0F901F9018951F920F920FB60F9263
:100D100011242F938F939F93EF93FF93E091C7013B
:100D2000F091C8018081E091CD01F091CE0182FD6A
:100D30001BC090818091D0018F5F8F732091D10172
:100D4000821741F0E091D001F0E0E954FE4F958F19
:100D50008093D001FF91EF919F918F912F910F90F0
:100D60000FBE0F901F9018958081F4CF1F920F92A5
:100D70000FB60F9211242F933F934F935F936F936E
:100D80007F938F939F93AF93BF93CF93DF93EF9313
:100D9000FF938091AC01C0917802D0E087FF24C01E
:100DA00010928500109284008091AC018F5F809337
:100DB000AC018091AC01082E000C990B8C179D079B
:100DC00024F48091AC018C30C4F180918400909126
:100DD0008500049680349C4908F47AC08091840090
:100DE00090918500049676C08091AC01082E000C8D
:100DF000990B8C179D07C4F6E091AC018E2FEE0F76
:100E0000990BFC01EE0FFF1FE80FF91FEC5AFD4F85
:100E1000808186FFC9CFE091AC018E2FEE0F990B38
:100E2000FC01EE0FFF1FE80FF91FEC5AFD4F808108
:100E300060E08F730E940C01B7CF20918400309145
:100E40008500E091AC018E2FEE0F990BFC01EE0FA7
:100E5000FF1FE80FF91FEC5AFD4F81819281820F2D
:100E6000931F9093890080938800E091AC018E2FAE
:100E7000EE0F990BFC01EE0FFF1FE80FF91FEC5A64
:100E8000FD4F808186FF11C0E091AC018E2FEE0FE7
:100E9000990BFC01EE0FFF1FE80FF91FEC5AFD4FF5
:100EA000808161E08F730E940C01FF91EF91DF91CF
:100EB000CF91BF91AF919F918F917F916F915F91F2
:100EC0004F913F912F910F900FBE0F901F9018954B
:100ED00080E49CE990938900809388008FEF809351
:100EE000AC01E3CFCF931092BA011092B90188EE12
:100EF00093E0A0E0B0E08093BB019093BC01A0938D
:100F0000BD01B093BE018AE091E09093B801809357
:100F1000B70185EC90E09093C4018093C30184EC09
:100F200090E09093C6018093C50180EC90E090938F
:100F3000C8018093C70181EC90E09093CA0180932F
:100F4000C90182EC90E09093CC018093CB0186ECB8
:100F500090E09093CE018093CD011092D001109239
:100F6000D1011092D2011092D301109285021092F9
:100F700084028CE191E0909383028093820282E06C
:100F800080938602CFEFC093870283E0809388022C
:100F900084E08093890285E080938A0286E08093D2
:100FA0008B0287E080938C0210928D0210928E0249
:100FB00010928F02109290021092910281E00E9492
:100FC0001503809178028C30C8F491E0980F9093CB
:100FD000780280937F0290E0FC01EE0FFF1FE80F84
:100FE000F91FEC5AFD4F88EB9BE0928381836EE8FA
:100FF00071E089E792E0CF910C941B05C0937F02CA
:10100000F6CFCF93DF93CDB7DEB768970FB6F894DE
:10101000DEBF0FBECDBF789484B5826084BD84B539
:10102000816084BD85B5826085BD85B5816085BDE3
:1010300080916E00816080936E001092810080919B
:101040008100826080938100809181008160809323
:101050008100809180008160809380008091B10048
:1010600084608093B1008091B00081608093B00073
:1010700080917A00846080937A0080917A00826007
:1010800080937A0080917A00816080937A008091C9
:101090007A00806880937A001092C100E091C701C5
:1010A000F091C80182E08083E091C301F091C40116
:1010B0001082E091C501F091C60180E18083109219
:1010C000CF01E091CB01F091CC0186E08083E091EB
:1010D000C901F091CA01808180618083E091C901DA
:1010E000F091CA01808188608083E091C901F0910C
:1010F000CA01808180688083E091C901F091CA01B2
:1011000080818F7D808368EC70E089E792E00E94A7
:101110004C048FE00E94880080E10E94880081E1F9
:101120000E94880050E040E070E060E081E090E0E4
:101130000E945F0282E00E94150386E291E00E9415
:10114000C60380917F028C3008F050C089E00E9475
:10115000880080917F02282F30E0F901EE0FFF1FF9
:10116000E20FF31FEC5AFD4F9081907C99609083C1
:1011700010928002109281022CE0622F0E940F0BCD
:10118000829FB001112430E020E0AB01420F531FD9
:10119000FA01EE0FFF1FE40FF51FEC5AFD4F90818F
:1011A00096FD16C02F5F3F4F2C30310571F781112E
:1011B0000FC01092800082E0809381001092850021
:1011C00010928400B19A80916F00826080936F00CA
:1011D000E0917F028E2F90E0FC01EE0FFF1FE80FE1
:1011E000F91FEC5AFD4F80818064808390E080E09D
:1011F0000E94A7008091AD01882309F46DC089E7A2
:1012000092E00E94D30365E371E0CE0101960E9453
:101210001B0550E040E0BE016F5F7F4F89E792E021
:101220000E9430048C01CE0101960E942C050F3FD4
:101230001F4F09F473C06AE371E0CE0107960E9464
:101240001B0569E772E0CE0101960E940105AE011F
:10125000495F5F4FBE016F5F7F4FCE010D960E94C9
:101260003405CE0101960E942C05CE0107960E94FE
:101270002C0589899A89892B09F10D851E856DE3D5
:1012800071E0C8010E940C0D892B71F50E940D03BD
:101290008FE391E00E94C6030E94B2038AE491E0CA
:1012A0000E94C60341E050E070E060E090E080E022
:1012B0000E945F028AE590E00E94A700CE010D9691
:1012C0000E942C0550E040E06EE871E089E792E072
:1012D0000E94E0041092AD010E94C201882309F42B
:1012E00089CF0E94A00486CF6CE571E0C8010E94FE
:1012F0000C0D892B19F750E040E070E060E081E0D0
:1013000090E00E945F0290E080E00E94A7000E94AF
:101310000D0386E291E00E94C603D0CF6EE571E036
:10132000CE0101960E941B0550E040E0BE016F5FB8
:101330007F4F89E792E00E9430048C01CE01019634
:101340000E942C050F3F1F4F09F4BCCF67E671E0E8
:10135000CE0107960E941B0569E772E0CE01019657
:101360000E940105AE01495F5F4FBE016F5F7F4F75
:10137000CE0143960E943405CE0101960E942C05B1
:10138000CE0107960E942C056EE671E0CE0107960D
:101390000E941B0569E772E0CE0101960E940105DB
:1013A000AE01495F5F4FBE016F5F7F4FCE010D966B
:1013B0000E943405CE0101960E942C05CE010796AD
:1013C0000E942C05CE0143960E94D303CE010D96B8
:1013D0000E94D3030E940D0363E771E0CE010196E2
:1013E0000E941B0550E040E0BE016F5F7F4FCE01C1
:1013F00043960E9430048C01CE0101960E942C0578
:101400000F3F1F4FC9F189E791E00E94C6030E9478
:10141000B20368E871E0CE0101960E941B0549897C
:101420005A896D857E85CE0101960E9474048111D2
:1014300004C0CE0101960E94CE044D815E81698177
:101440007A8182E892E00E945801CE0101960E94C2
:101450002C0550E040E061E070E090E080E00E9408
:101460005F028AE590E00E94A700CE010D960E94DF
:101470002C05CE01439624CF6FE871E0CE01019692
:101480000E941B0550E040E0BE016F5F7F4FCE0120
:1014900043960E9430048C01CE0101960E942C05D7
:1014A0000F3F1F4FB1F284E991E00E94C6030E94F2
:1014B000B203BE01635F7F4FCE0101960E9401051A
:1014C00048E050E062EA71E0AECF89E792E00C9428
:1014D0002C0591110C94720A803219F089508550B4
:1014E000C8F70895992788270895052E97FB1EF4BD
:1014F00000940E948C0A57FD07D00E94DE0A07FC68
:1015000003D04EF40C948C0A50954095309521955B
:101510003F4F4F4F5F4F089590958095709561951F
:101520007F4F8F4F9F4F08950E94000BA59F900DF6
:10153000B49F900DA49F800D911D11240895B7FFB5
:101540000C94940A0E94940A821B930B08952F9284
:101550003F924F925F926F927F928F929F92AF9243
:10156000BF92CF92DF92EF92FF920F931F93CF9390
:10157000DF93CDB7DEB7CA1BDB0B0FB6F894DEBF27
:101580000FBECDBF09942A88398848885F846E844D
:101590007D848C849B84AA84B984C884DF80EE8097
:1015A000FD800C811B81AA81B981CE0FD11D0FB6A0
:1015B000F894DEBF0FBECDBFED010895A1E21A2E53
:1015C000AA1BBB1BFD010DC0AA1FBB1FEE1FFF1FE7
:1015D000A217B307E407F50720F0A21BB30BE40B37
:1015E000F50B661F771F881F991F1A9469F760957E
:1015F0007095809590959B01AC01BD01CF01089538
:10160000A29FB001B39FC001A39F700D811D112443
:10161000911DB29F700D811D1124911D0895991B7C
:1016200079E004C0991F961708F0961B881F7A95D9
:10163000C9F780950895EE0FFF1F0590F491E02DF6
:1016400009940F931F93CF93DF938230910510F489
:1016500082E090E0E0919C02F0919D0230E020E079
:10166000B0E0A0E0309799F42115310509F44AC0A3
:10167000281B390B24303105D8F58A819B816115EF
:10168000710589F1FB0193838283FE0111C04081C2
:1016900051810281138148175907E0F04817590713
:1016A00099F4109761F012960C93129713961C936D
:1016B0003296CF01DF91CF911F910F910895009342
:1016C0009C0210939D02F4CF2115310551F0421771
:1016D000530738F0A901DB019A01BD01DF01F801D0
:1016E000C1CFEF01F9CF90939D0280939C02CDCFA3
:1016F000FE01E20FF31F8193919322503109398348
:101700002883D7CF20919A0230919B02232B41F45A
:10171000209102013091030130939B0220939A02A1
:1017200020910001309101012115310541F42DB7BF
:101730003EB74091040150910501241B350BE09107
:101740009A02F0919B02E217F307A0F42E1B3F0BC5
:101750002817390778F0AC014E5F5F4F2417350723
:1017600048F04E0F5F1F50939B0240939A02819363
:1017700091939FCFF0E0E0E09CCFCF93DF93009771
:10178000E9F0FC01329713821282A0919C02B09181
:101790009D02ED0130E020E01097A1F4208131811D
:1017A000820F931F20919A0230919B0228173907CC
:1017B00009F061C0F0939B02E0939A02DF91CF9110
:1017C0000895EA01CE17DF07E8F54A815B819E01A3
:1017D00041155105B1F7E901FB83EA83499159911C
:1017E000C40FD51FEC17FD0761F48081918102962B
:1017F000840F951FE90199838883828193819B835C
:101800008A83F0E0E0E012968D919C911397009707
:10181000B9F52D913C911197CD010296820F931F3E
:1018200020919A0230919B022817390739F6309798
:1018300051F510929D0210929C02B0939B02A093CE
:101840009A02BCCFD383C28340815181840F951FFC
:10185000C817D90761F44E5F5F4F88819981480F9F
:10186000591F518340838A819B81938382832115F1
:10187000310509F0B0CFF0939D02E0939C029ECF1A
:10188000FD01DC01C0CF13821282D7CFB0E0A0E00F
:10189000ECE4FCE00C94A90A8C01009751F4CB0114
:1018A0000E94210B8C01C801CDB7DEB7E0E10C949A
:1018B000C50AFC01E60FF71F9C0122503109E2170F
:1018C000F30708F49DC0D901CD91DC911197C6179B
:1018D000D70798F0C530D10530F3CE0104978617AD
:1018E000970708F3C61BD70B2297C193D1936D932B
:1018F0007C93CF010E94BD0BD6CF5B01AC1ABD0A11
:101900004C018C0E9D1EA0919C02B0919D02512C09
:10191000412CF12CE12C109731F580919A02909195
:101920009B028815990509F05CC04616570608F019
:1019300058C08091000190910101009741F48DB74A
:101940009EB74091040150910501841B950BE81747
:10195000F90708F055C0F0939B02E0939A02F90151
:1019600071836083A0CF8D919C91119712966C909A
:10197000129713967C901397A815B90559F56C0129
:1019800042E0C40ED11CCA14DB0420F1AC014A1998
:101990005B09DA011296159780F062827382518397
:1019A0004083D9016D937C93E114F10471F0D70168
:1019B0001396FC93EE93129776CF22968C0F9D1F71
:1019C000F90191838083F301EFCFF0939D02E093BF
:1019D0009C0269CF4816590608F42C017D01D301F9
:1019E0009ACFCB010E94210B7C01009749F0AE01F8
:1019F000B8010E94030DC8010E94BD0B870153CF9F
:101A000010E000E050CFFB01DC0102C001900D921C
:101A100041505040D8F70895FB01DC018D910190B1
:101A200080190110D9F3990B0895FB01DC01019095
:101A30000D920020E1F70895FB0151915523A9F083
:101A4000BF01DC014D9145174111E1F759F4CD017A
:101A50000190002049F04D9140154111C9F3FB015F
:101A60004111EFCF81E090E00197089510E0CDE5BE
:101A7000D0E004C0FE010E941B0B2196CE35D10799
:061A8000C9F7F894FFCF46
:101A860000009E02800000000000EE015801850162
:101A96003B02B6019401A80100000000C0035801F2
:101AA6005C025B023A005363616E20596F757220C7
:101AB6004361726400226972220069720031005724
:101AC600616974696E672E2E2E004F626A656374B3
:101AD60020696E20446F6F72776179003000226151
:101AE6006374696F6E2200616374696F6E00736C54
:101AF6006F7400656E7472790057656C636F6D65FF
:101B06002120456E74727900536C6F743A2000651B
:101B160078697400476F6F6462796521204578693A
:0C1B260074002056616361746564000067
:00000001FF
